S3150800400000040020AD410008B5410008B74100088A
S31508004010B9410008BB410008BD4100080000000086
S31508004020000000000000000000000000BF4100087A
S31508004030C141000800000000C3410008C54100084E
S31508004040C7410008C7410008C7410008C741000822
S31508004050C7410008C7410008C7410008C741000812
S31508004060C7410008C7410008C7410008C741000802
S31508004070C7410008C7410008C7410008C7410008F2
S31508004080C7410008C7410008C741000800000000F2
S31508004090000000000000000000000000C741000802
S315080040A0C7410008C7410008C7410008C7410008C2
S315080040B0C7410008C7410008C7410008C7410008B2
S315080040C0C7410008C7410008C7410008C7410008A2
S315080040D0C7410008C7410008C741000800000000A2
S315080040E0C7410008C7410008C74100080000000092
S315080040F0000000000000000000000000C7410008A2
S3150800410000000000C7410008C7410008C741000871
S315080041100000000000000000000000000000000091
S31508004120C7410008C7410008C7410008C741000841
S31508004130C741000800000000000000000000000061
S31508004140000000000000000000000000C741000851
S31508004150C7410008C7410008C7410008C741000811
S31508004160C7410008C7410008000000000000000021
S315080041700000000000000000000000000000000031
S3150800418000000000C7410008000000000000000011
S31508004190C7410008C7410008DFF80CD000F018F83E
S315080041A0004800475D420008000400200648804792
S315080041B006480047FEE7FEE7FEE7FEE7FEE7FEE7FE
S315080041C0FEE7FEE7FEE7FEE7F5410008994100082D
S315080041D0064C074D06E0E06840F0010394E8070046
S315080041E098471034AC42F6D3FFF7DAFF904200083E
S315080041F0A04200080D48016841F0010101600B4A20
S315080042000021083211600268094B1A400260031D3A
S31508004210084A1A60026822F48022026003480C30B9
S3150800422001600549580608607047000000380240DA
S31508004230FFFFF6FE1030002408ED00E002E008C893
S31508004240121F08C1002AFAD170477047002001E002
S3150800425001C1121F002AFBD1704700000949082036
S3150800426008600949400608600749084B1431086880
S3150800427080F48040086018460222521C8242FCDB09
S31508004280F5E7000030380240000C024040420F00BB
S31508004290A042000800000020000400004C4200086C
S7050800419918
